S01900006C61622D61342D766F6C74696D6574726F2E7372656398
S11300000C9434000C9451000C9451000C94510045
S11300100C9451000C9451000C9451000C94510018
S11300200C9451000C9451000C9451000C94510008
S11300300C9451000C9451000C9451000C945100F8
S11300400C946F000C9451000C9451000C945100CA
S11300500C9451000C9451000C9451000C945100D8
S11300600C9451000C94510011241FBECFEFD8E022
S1130070DEBFCDBF11E0A0E0B1E0E4EEF2E002C0EB
S113008005900D92AC30B107D9F721E0ACE0B1E0B6
S113009001C01D92AD30B207E1F70E945D010C94DE
S11300A070010C94000095B1907F95B9E62FF0E0B3
S11300B0EE5FFE4F4081833011F4406801C04F77FA
S11300C065B121E030E0F90102C0EE0FFF1F8A950F
S11300D0E2F7CF01862B85B91BB84BB908951F925F
S11300E00F920FB60F9211242F933F934F935F9368
S11300F06F937F938F939F93AF93BF93EF93FF93EC
S113010086E086BDE0910C01E13011F120F0E2308F
S113011009F444C06BC04091000130910101242FC7
S1130120ADECBCEC0E9461019695879596958795F8
S1130130969587959C01220F331F880F991F880F6E
S1130140991F880F991F820F931F642F681B7BC010
S11301502091000130910101ADECBCEC0E946101E1
S1130160AC015695479556954795569547959A01EE
S11301700E946101969587959695879596958795A2
S11301809C01220F331F880F991F880F991F880F16
S1130190991F820F931F642F681B55C02091000183
S11301A0309101013695279536952795ABE7B4E153
S11301B00E946101AC01569547959A01ADECBCECE7
S11301C00E94610196958795969587959695879552
S11301D09C01220F331F880F991F880F991F880FC6
S11301E0991F820F931F642F681B2DC0209100015B
S11301F030910101369527953695279536952795A3
S1130200A5ECB0E20E946101AC01529542954F7099
S113021045275F7045279A01ADECBCEC0E94610153
S11302209695879596958795969587959C01220F27
S1130230331F880F991F880F991F880F991F820FEA
S1130240931F642F681B8E2F0E94530080910C0112
S11302508F5F80930C01843011F410920C01FF9194
S1130260EF91BF91AF919F918F917F916F915F912A
S11302704F913F912F910F900FBE0F901F901895A3
S113028086E086BD14BC83E085BD81E080936E006A
S1130290089580E480937C0087E880937A00089531
S11302A08FEF8AB98FE084B915B808950E94500180
S11302B00E9449010E94400108950E9456017894C9
S11302C0FFCFA29FB001B39FC001A39F700D811DFA
S11302D01124911DB29F700D811D1124911D08954B
S10702E0F894FFCFBC
S10F02E4D2043F065B4F666D7C077F6709
S9030000FC
