:020000020000FC
:0200000052C0EC
:100040000F930FB70F9306E006BD49D00F910FBF76
:100050000F9118950000013049F00A950F930F9108
:100060000F930F91000000000000F5CF08950F934B
:100070000AEFF0DF0F910F930AEFECDF0F910F9370
:100080000AEFE8DF0F910F9309EFE4DF0F91000013
:10009000013041F00A950F930F910F930F910000DB
:1000A0000000E5CF08950FEF0AB90FE004B900E3AF
:1000B00005B940E050E060E070E080E000E004BDA1
:1000C00006E006BD03E005BD01E000936E007894F4
:1000D00003E005BD00C01D9BFBCF23D0FCCF4395A3
:1000E000443609F0089540E001D0089553955A3000
:1000F00009F0089550E001D0089563956A3009F041
:10010000089560E001D008957395763009F0089560
:1001100070E001D0089583958A3009F0089580E059
:10012000089511E0052F0AD012E0062F07D014E041
:10013000072F04D018E0082F01D0089520E325B937
:100140000AD00BB91F93120F15B91F910F9308E036
:100150008EDF0F910895E4E6F1E0E00F00E0F01F7C
:0E016000049108953F065B4F666D7C077F6734
:00000001FF
