:020000020000FC
:1000000029C00000013049F00A950F930F910F931A
:100010000F91000000000000F5CF08950F930AEF44
:10002000F0DF0F910F930AEFECDF0F910F930AEFC0
:10003000E8DF0F910F9309EFE4DF0F91000001302B
:1000400041F00A950F930F910F930F91000000005C
:10005000E5CF08950FEC0093C40000E00093C500C5
:1000600002E20093C00008E10093C10006E00093A3
:10007000C20000E600937C0007E800937A0024D0D9
:100080000B32E9F731D00F9305D00F913BD00AE046
:1000900022D0F5CF00E00F9308D0003021F01BD024
:1000A0000F910395F8CF0F910895E8EBF0E0E00F82
:1000B00000E0F01F04910895544153493A2041440F
:1000C00043203D20307800000091C00007FFFCCFA6
:1000D0000091C60008950F930091C00005FFFCCF6A
:1000E0000F910093C60008950F930AE08ADF0F91E5
:1000F00007EC00937A0000917A0006FDFCCF009196
:10010000790008950F9308D011D0E5DF0F9109D041
:1001100003D00CD0E0DF0895069506950695069568
:100120000895000F000F000F000F0895EAE3F1E0BB
:10013000E00F00E0F01F0491089530313233343580
:0A0140003637383941424344454642
:00000001FF
