:020000020000FC
:1000000029C00000013049F00A950F930F910F931A
:100010000F91000000000000F5CF08950F930AEF44
:10002000F0DF0F910F930AEFECDF0F910F930AEFC0
:10003000E8DF0F910F9309EFE4DF0F91000001302B
:1000400041F00A950F930F910F930F91000000005C
:10005000E5CF08950FEF0AB903D009D00BB9FDCF52
:1000600000E600937C0007E800937A0008950F9360
:100070000AE0C7DF0F9107EC00937A0000917A0045
:0A00800006FDFCCF00917900089501
:00000001FF
